:100000000C9452050C9409140C9499050C949905C0
:100010000C9499050C9499050C9499050C949905E8
:100020000C9499050C9499050C94B22C0C94852D84
:100030000C94AB230C9499050C9499050C94990598
:100040000C9499050C9499050C9499050C949905B8
:100050000C9499050C94F6230C9499050C9499052D
:100060000C9499050C9499050C9499050C94990598
:100070000C9499050C9499050C9499050C94990588
:100080000C9499050C9499050C9499050C94990578
:100090000C9499050C9499050C9499050C94990568
:1000A0000C9499050C9499050C94990529001E004F
:1000B0001F002000210022002B0014001A0008005D
:1000C00015001700390004001600070009000A0097
:1000D000E1001D001B0006001900050000000000E3
:1000E000E000E200280001512A0027002600250038
:1000F000240023003100130012000C0018001C0023
:10010000340033000F000E000D000B00E500380036
:10011000370036001000110000000000E400E60087
:100120002C00015135001550145013501650125028
:100130002B00000048004700460049000000000076
:100140005000520051004F00E10000004A004B00F7
:100150004E004D0000000000E000E2002C00010015
:100160002E002D00145013501650125030002F0046
:1001700048004700460049004C0000004F00520074
:1001800051005000E50000004D004B004E004A00B9
:1001900000000000E400E600280001002900000043
:1001A00000000000000000002B0000000000000024
:1001B0000000000000000000F200F000F100F30079
:1001C000E1000000FB00F900FA00FC000000000064
:1001D000F600F500F40006512A00000000000000BF
:1001E000000000000000000000000000000000000F
:1001F00000000000F300F000F100F200E500000054
:10020000FC00F900FA00FB0000000000F600F50019
:10021000F40006512900000000000000000000006A
:100220002B00000048004700460049000000000085
:100230005000520051004F00E10000004A004B0006
:100240004E004D0000000000E000E20028000651D2
:100250002A00000056005500540053000000000022
:100260005700610060005F003700360057005E00F5
:100270005D005C00E500000028005B005A005900AA
:1002800000000000630062002C00065129003A00C3
:100290003B003C003D003E002B0044004500680050
:1002A00069006A000000005CC95CC75CC55CC25C98
:1002B000E10000000000000000000000000000005D
:1002C000E000E200280006512A00430042004100FD
:1002D00040003F00095C000000000000000000003A
:1002E000125C005CC95CC75CC55CC25CE5000000D8
:1002F000000000000000000000000000E400E60034
:100300002C00065129001E001F00200021002200A1
:100310002B0014001A00080015001700E00004006C
:100320001600070009000A00E1001D001B0006007E
:100330001900050000000000E000E2002C0006515A
:100340002A00270026002500240023003100130086
:1003500012000C0018001C00280033000F000E00D3
:100360000D000B00E50038003700360010001100CA
:1003700000000000E400E6002C0006513500155096
:1003800014501350105012502B000000480047002A
:1003900046004900000000005000520051004F008C
:1003A000E10000004A004B004E004D00000000003C
:1003B000E000E200280001002E002D001450135030
:1003C0001050125030002F004800470046004900EE
:1003D0004C0000004F00520051005000E5000000AA
:1003E0004D004B004E004A0000000000E400E60013
:1003F0002C00010044454255473A2064697361620C
:100400006C65642E0A0044454255473A20656E618A
:10041000626C65642E0A000A0025303862003A20BA
:100420000025303258000A722F63203031323334C5
:100430003536370A007267626C69676874207365C5
:100440007420687376205B4E4F454550524F4D5D8A
:100450003A2025752C25752C25750A007267626C6B
:10046000696768742073657420687376205B4545FE
:1004700050524F4D5D3A2025752C25752C25750A57
:10048000007267626C696768742064697361626C8A
:1004900065205B4E4F454550524F4D5D3A20726787
:1004A000626C696768745F636F6E6669672E656EFC
:1004B00061626C65203D2025750A007267626C6977
:1004C0006768742064697361626C65205B454550A0
:1004D000524F4D5D3A207267626C696768745F6362
:1004E0006F6E6669672E656E61626C65203D2025C2
:1004F000750A007267626C6967687420656E616274
:100500006C65205B454550524F4D5D3A20726762E5
:100510006C696768745F636F6E6669672E656E618C
:10052000626C65203D2025750A007267626C696700
:10053000687420746F67676C65205B454550524F47
:100540004D5D3A207267626C696768745F636F6EB5
:100550006669672E656E61626C65203D2025750AAF
:10056000007267626C69676874206D6F6465205BF8
:100570004E4F454550524F4D5D3A2025750A007249
:1005800067626C69676874206D6F6465205B4545C0
:1005900050524F4D5D3A2025750A007267626C69B2
:1005A0006768745F696E6974207267626C696768F6
:1005B000745F636F6E6669672E6D6F6465203D20A2
:1005C000302E2057726974652064656661756C749D
:1005D0002076616C75657320746F20454550524FCD
:1005E0004D2E0A007267626C696768745F696E6994
:1005F00074206565636F6E666967206973206E6F2E
:100600007420656E61626C65642E0A007267626CAC
:10061000696768745F696E697420737461727421AC
:100620000A007267626C696768745F696E6974203A
:1006300063616C6C65642E0A007267626C6967683E
:10064000745F636F6E6669672E7370656564203DC5
:100650002025640A007267626C696768745F636F63
:100660006E6669672E76616C203D2025640A0072F3
:1006700067626C696768745F636F6E6669672E7323
:100680006174203D2025640A007267626C696768A6
:10069000745F636F6E6669672E687565203D2025FF
:1006A000640A007267686C696768745F636F6E667E
:1006B00069672E6D6F6465203D2025640A007267AE
:1006C000626C696768745F636F6E6669672E656EDA
:1006D00061626C65203D2025640A007267626C6966
:1006E0006768745F636F6E66696720454550524F57
:1006F0004D3A0A000001010101010101010102025C
:1007000002020202020202030303030303030304BF
:10071000040404040404050505050506060606068A
:10072000070707070708080808090909090A0A0A44
:100730000B0B0B0C0C0C0D0D0D0E0E0E0F0F0F10E6
:100740001011111112121313141415151616171770
:10075000181819191A1A1B1B1C1D1D1E1E1F2020DC
:10076000212222232424252626272829292A2B2C26
:100770002D2D2E2F30313232333435363738393A49
:100780003B3C3D3E3F404142434445464748494A41
:100790004C4D4E4F50515354555658595A5B5D5E0F
:1007A0005F616264656668696B6C6D6F70727375AA
:1007B00077787A7B7D7E8082838587888A8C8E8F0E
:1007C00091939596989A9C9EA0A2A3A5A7A9ABAD3C
:1007D000AFB1B3B5B7BABCBEC0C2C4C6C9CBCDCF2A
:1007E000D1D4D6D8DBDDDFE2E4E7E9EBEEF0F3F5D8
:1007F000F8FAFDFF0A002530325820006B65796257
:100800006F6172645F7265706F72743A20000A00E3
:1008100025303258006B6579626F6172645F736571
:10082000745F6C65643A200064656C5F6B65795F2A
:100830006269743A2063616E27742064656C3A20A3
:10084000253032580A006164645F6B65795F6269C4
:10085000743A2063616E2774206164643A20253005
:1008600032580A00290A002575002F002575005D01
:100870002800256400200025640020002564002055
:10088000002564007C0025303258006D6F7573655B
:100890006B6579205B62746E7C78207920762068A5
:1008A0005D287265702F61636C293A205B005B7371
:1008B0005D004B6579626F6172642073746172745C
:1008C0002E0A005B575D005B535D005B525D005B71
:1008D000445D005B435D0004033000000026034BD1
:1008E0000065006500620069006F00200049007229
:1008F0000069007300200052006500760020002E81
:1009000000340000000E034B0065006500620069C2
:10091000006F0000000403090409025B00030100EA
:10092000A0FA0904000001030101000921110100DE
:10093000012240000705810308000A0904010001A3
:100940000300000009211101000122BC00070582FB
:100950000320000A0904020002030000000921111B
:10096000010001222200070583032000010705037F
:1009700003200001120110010000000810CB5642B4
:100980000004010203010631FF0974A10109751574
:100990000026FF009520750881020976150026FFC4
:1009A00000952075089102C005010902A101850288
:1009B0000901A10005091901290515002501950561
:1009C0007501810295017503810105010930093125
:1009D0001581257F95027508810609381581257FC7
:1009E000950175088106050C0A38021581257F9549
:1009F0000175088106C0C005010980A101850319A0
:100A0000012AB700150126B700950175108100C0B5
:100A1000050C0901A101850419012AA0021501266E
:100A2000A002950175108100C005010906A101858C
:100A300005050719E029E7150025019508750181CD
:100A4000020507190029EF1500250195F0750181B0
:100A50000205081901290595057501910295017591
:100A6000039101C005010906A101050719E029E765
:100A70001500250195087501810295017508810110
:100A80000507190029FF150026FF00950675088146
:100A90000005081901290595057501910295017553
:100AA000039101C011241FBECFEFDAE0DEBFCDBF3E
:100AB00004B603FE27C08091080390910903A0911A
:100AC0000A03B0910B038730904BA740B04BD1F491
:100AD000109208031092090310920A0310920B035C
:100AE00014BE84B7877F84BF0FB6F894A895809111
:100AF0006000886180936000109260000FBEE0E0AB
:100B0000F8E3099511E0A0E0B1E0E6E0F0E602C00C
:100B100005900D92AC3BB107D9F723E0ACEBB1E007
:100B200001C01D92A830B207E1F70E94DD290C94A4
:100B3000B72F0C940000FF93EF93E091BC01F0916C
:100B4000BD01309709F00995EF91FF910895FC01DF
:100B50008591803011F0EFDFFBCF0895FF27E0E2B1
:100B600030E247FF0CC0419597FF09C0EDE2609568
:100B7000709580959095611D711D811D911D27FFB8
:100B800002C0219530E350E2AA27660F771F881F25
:100B9000991FAA1FA41710F0A41B63955A95A9F7D3
:100BA000AA3008F0A95FA05DAF93F39561157105B8
:100BB0008105910541F7ED3211F4EF93F395F217AA
:100BC00018F43F93F395FBCF8F91B5DFFA95E1F7DA
:100BD0000895E991F9918591803021F0853219F0DD
:100BE000AADFF9CF089520E0E89455915532C1F37A
:100BF000503311F4689455915A3348F4505390F39C
:100C0000220F022E220F220F200D250FF4CF0EF4FB
:100C1000219589919991533619F3533729F1533519
:100C200059F1BC0188279927E8945C3621F4899111
:100C3000999168945591543639F446EF7EF077FFD8
:100C40000DC08FEF9FEF0AC055374AE039F0583595
:100C500040E121F0523642E009F00895FF93EF930E
:100C60007DDFEF91FF91B7CFFF93EF93FC0181916F
:100C70008030B9F360DFFBCFFF93EF9368DFF1CFF4
:100C8000DF93CF93CDB7DEB72596A3DFCF91DF916A
:100C900008950E9438104FEF6FEF80E00E94C30F5D
:100CA00060E070E0CB010E9406220C941222409179
:100CB000BE0160910001809102010C94C30F81E09C
:100CC0000E9435100C945706CF93C82F0E943D0EFA
:100CD00090E09093BF018093BE01C43081F190F405
:100CE000C230D9F0C33011F1C13081F081E00E94EF
:100CF00035104091BE016091000180910201CF91B9
:100D00000C94C30FC53021F1C63081F781E00E94F9
:100D100035104091BE0160E0F0CF81E00E943510B7
:100D20004091BE016091000182E8E9CF81E00E941C
:100D300035104091BE01609100018FEAE0CF81E063
:100D40000E9435104091BE01609100018DE2D7CF25
:100D500081E00E9435104091BE016091000185EF55
:100D6000CECF0F931F93CF93DF938B01D82FC92F33
:100D70000E9479210E946406B8018D2F9C2FDF917B
:100D8000CF911F910F910895CF93DF9300D000D0A2
:100D9000CDB7DEB789830E943D0E90E09093BF01EE
:100DA0008093BE01898181FF1EC080919002909145
:100DB0009102A0919202B091930289839A83AB83AE
:100DC000BC83BC01CD010E94792181110CC04091EE
:100DD000BE01609100010F900F900F900F90DF9176
:100DE000CF910C94C30F8091900290919102A091A9
:100DF0009202B091930289839A83AB83BC83BC0136
:100E0000CD010F900F900F900F90DF91CF910C9428
:100E1000B10681E0089581E008950C940B070895D0
:100E20000C940F071F93CF93DF9300D000D00F9245
:100E3000CDB7DEB749835A836B8330912F02898106
:100E40009A8131111DC06623B9F02223A9F00E94B6
:100E50002520182F682F89819A810E94CC1F6981D3
:100E60007A81812F0F900F900F900F900F90DF914C
:100E7000CF911F910C94DF070E94FB1F182FEFCF1B
:100E80000E94252069817A81EDCFFC01262F4081C7
:100E900051816281738184810C941207CF93DF9317
:100EA000D82FC92F60E00E9445076D2F7C2FDF915E
:100EB000CF910C9410070E94D821811102C00E948A
:100EC0006E220C94E8090C94EB090C94C40681E0A2
:100ED00008950C946707CF93C82F0E9465078C2F45
:100EE000CF910C94690708950E94801A0E9473079D
:100EF0002FEF84E39CE0215080409040E1F700C058
:100F000000000C941A240F931F93CF93DF93EC01EE
:100F100061E00E9445078C01BE010E940D078823F5
:100F200041F1BE01C8010E941412882311F1BE01D3
:100F3000C8010E9458128823E1F0BE01C8010E9436
:100F40002B138823B1F0BE01C8010E94221188230F
:100F500081F08A81882341F101308CE5180779F00E
:100F60000E3D8CE51807E9F001151C45E9F40E94D7
:100F7000740780E0DF91CF911F910F9108959091B8
:100F8000BD02892F8E7F90FF81608093BD0280FF1C
:100F900005C086E094E00E94A705EBCF84EF93E0C4
:100FA000FACF0E946E22E5CFCE01DF91CF911F9143
:100FB0000F910C94090790E080E008950895972F11
:100FC00070E026E0929F600D711D1124FB019CE3EF
:100FD000899FE00DF11D1124EE0FFF1FE455FF4F17
:100FE000859194910895FC01EE0FFF1FE95EFB4F80
:100FF000859194910895CF93DF930E94DF070E941B
:101000000D09EC01811520E5920708F04BC0811510
:1010100030E4930708F0B2C0803E910518F5803C9B
:10102000910508F09FC0883A910570F4853A9105C2
:1010300008F095C08130910529F10497813A910516
:1010400008F1D0E0C0E01EC08F3B9105D1F3C85A33
:10105000D0E0CC0FDD1FC95BDE4F0990D881C02DD9
:10106000D46410C0811540E2940780F48F3F91054D
:1010700009F040F4883E910528F0805F9109D06521
:101080004097F8F6CE01DF91CF910895C11580E326
:10109000D80708F46DC0CE019927D3FD6CC0EC01D0
:1010A000D06CF0CFC11595E5D90760F5C11524E5E1
:1010B000D20708F094C0C11533E5D30778F4C11501
:1010C00042E5D40708F07AC0C11581E5D80708F4D5
:1010D00058C0DC2FCC27C16FD06AD4CFCE0183702B
:1010E000992721E030E002C0220F331F8A95E2F7F2
:1010F000C695C69590E2C99FE0011124C22BD32B5F
:10110000DA68C0CFC1152AE5D207B0F4C11539E5B8
:10111000D30708F074C0C11546E5D40708F464C0CD
:10112000CE0198558F3F910511F008F08ACFDC2F42
:10113000CC27C06FD06AA6CFCE01905681159042C1
:1011400008F07FCF8D2F8F710E94A50990E0982F16
:10115000882788279F719C012C2BE9014EC0A497FA
:10116000D06490CF805C91090E94F307EC018ACF94
:10117000CE019F70F9CFEC01D86C84CFDF70D06ABC
:1011800081CFCE0174E0969587957A95E1F78370CB
:101190002C2F26952695237040E2249F9001112440
:1011A000382B8C2F8370C1E0D0E002C0CC0FDD1F44
:1011B0008A95E2F7C22BD32BDC6864CFCE01837013
:1011C000992721E030E002C0220F331F8A95E2F711
:1011D000C695C69580E2C89FE0011124EBCFDC2FB5
:1011E000CC27C46FD06A4ECF8C2F0E94A509C82F80
:1011F000D0E0DC2FCC27CC27DF71D06243CF8C2FFF
:101200008F700E94A50934E0D695C7953A95E1F70D
:10121000CF70DC2FC82FD06935CF803E910599F172
:10122000C8F48133910509F476C048F489329105F8
:1012300009F46AC08A32910509F474C008958933AB
:101240009105D1F082389105B9F08533910509F403
:1012500054C00895843E910599F138F4823E910579
:10126000F9F0833E910509F10895863E910599F1C3
:10127000873E9105B9F108952091C3022370A1F032
:1012800080EE90E008952091C30220FD52C030917D
:10129000C40230FF09C024FF4FC090E080E004C0CA
:1012A0002091C30222FDF7CF08952091C30222FDB1
:1012B00046C03091C40230FDE3CF24FFF5CFEDCF1F
:1012C0002091C40221FFF0CF8091C30284FDE5CFBD
:1012D00087EE90E008952091C30223FFE5CF24FD1F
:1012E000DCCFF6CF2091C30223FD2CC03091C40285
:1012F00031FFE3CF84EE90E008952091C30225FFF3
:10130000D3CF89E290E008952091C30225FFCCCF8E
:1013100085E390E008952091C30226FFC5CF8AE2BD
:1013200090E008952091C30226FFBECF81E390E0B4
:10133000089589E390E0089583EE90E0089582EEA9
:1013400090E0089586EE90E008959091C30292FF98
:1013500006C0282F28712830F9F4877F846093FF16
:1013600006C0282F28712831F1F4877E84612091EE
:10137000C40220FF06C0382F38713830D9F4877F77
:10138000816021FF06C0282F28712831D1F4877E83
:10139000816194FD877E0895282F24712430F9F609
:1013A0008B7F8860DCCF282F2471243101F78B7E5E
:1013B0008861DDCF382F3171313019F78E7F886029
:1013C000E0CF282F2171213121F78E7E8861E1CF76
:1013D0000C945F0608950C94EA09E82FF0E0E054BD
:1013E000FE4F80810895CF92DF92EF92FF920F938C
:1013F0001F93CF93DF9386E294E00E94A70580ECD1
:10140000E82E81E0F82ED0E0C0E091E2C92E94E011
:10141000D92E09E114E0DF93CF93DF92CF920E949F
:1014200040068EE194E00E94A705F70181917F01BB
:101430000E94C4211F928F931F930F930E94400616
:1014400087E194E00E94A70521968DB79EB7089684
:101450000FB6F8949EBF0FBE8DBFCA30D105D9F626
:10146000DF91CF911F910F91FF90EF90DF90CF9080
:10147000089580EA8A95F1F7089508950F931F93D0
:10148000CF93DF93CDB7DEB760970FB6F894DEBF8A
:101490000FBECDBF0E94200C8091140181112AC083
:1014A00086E0EDE3F1E0DE01119601900D928A9560
:1014B000E1F7FE01379684E0DF011D928A95E9F796
:1014C0008AE03697AAE0B1E001900D928A95E1F7A3
:1014D00086E0E5E7F1E0DE011B9601900D928A952A
:1014E000E1F786E0FE013B96A4E0B1E001900D92A9
:1014F0008A95E1F78091140195E0811190E0909335
:10150000D60185E0891B8093D5012AE031E04FE0C8
:1015100051E061E070E0F90181919F01E82FE295CF
:10152000EF70A1E2AE0FB0E0FC918F708B0101C0B3
:10153000000F8A95EAF7902F90959F239C93EE5D7C
:10154000F0E08081802B80834217530721F724E04D
:1015500031E04AE051E061E070E0D9018D919D01F8
:10156000E82FE295EF70A1E2AE0FB0E0FC918F7032
:101570008B0101C0000F8A95EAF7902F90959F2369
:101580009C93EE5DF0E08081802B808342175307AF
:1015900021F78AE0EAECF1E0DF01982F1D929A959D
:1015A000E9F7E0ECF1E0DF011D928A95E9F785E0CB
:1015B0000E94C50B0E945B0760960FB6F894DEBFD1
:1015C0000FBECDBFDF91CF911F910F910C94350CC1
:1015D0000E94030C8823F9F08091D50190E080549B
:1015E0009E4F0E94650C811113C08091D4018F5FC2
:1015F0008093D401863050F0E091D501F0E0E054C2
:10160000FE4F85E0DF011D928A95E9F70C94630790
:101610001092D401FBCF8091D60190E080549E4F70
:101620000E94840C0C943D0A9F92AF92BF92CF927D
:10163000DF92EF92FF920F931F93CF93DF930AE015
:1016400011E08AECC82E81E0D82E9FE0E92E91E0CF
:10165000F92E912CC1E0D0E0F80181918F01E82FA3
:10166000E295EF70EF5DF0E090818F709E0101C018
:10167000220F8A95EAF7892F822B8083F8019291B5
:101680005F01E92FE295EF70EE5DF0E020819F7041
:10169000AE0102C0440F551F9A95E2F7CA0180952A
:1016A000822380830E94390AA4E0B1E050E040E048
:1016B00020E03D91E32FE295EF70E05EF0E0808165
:1016C00090E03F7002C0959587953A95E2F780FDCE
:1016D00058C08C2F042E01C0880F0A94EAF7282BDB
:1016E0004F5F5F4F4630510521F7F5019081E92F9B
:1016F000E295EF70EF5DF0E030819F70AE0102C0C7
:10170000440F551F9A95E2F7CA0180958323808381
:10171000F5018081E82FE295EF70EE5DF0E09081B9
:101720008F70AE0101C0440F8A95EAF7892F842B90
:101730008083F6018081281731F1208381E0982A87
:10174000FFEFCF1ADF0AE016F10609F085CF6091AE
:10175000D60170E060547E4F292D45E08AEC91E07F
:101760000E94C60B0E94E80A892DDF91CF911F913C
:101770000F91FF90EF90DF90CF90BF90AF909F9030
:10178000089580E0ACCF80E0DACF0895FF920F9308
:101790001F93CF93DF93F82E092F162FD72FC42F27
:1017A000222349F081E08093D9010E94DB239093AA
:1017B000D8018093D7018091D9018823A1F080912D
:1017C000D7019091D8010E94E723069760F0EF2D92
:1017D000F02FA12FBD2FCF018C0F911DE817F90716
:1017E00041F41092D901DF91CF911F910F91FF9099
:1017F000089521912D93F2CF55985D9889B185FB7D
:10180000882780F908958091DA01811110C08091B4
:10181000D80080618093D8008AE18A95F1F700C0F2
:101820008091D90080FD0AC082E08093DA0181E0D6
:101830009091DA01913009F080E0089581E0F5CFD0
:101840000E94FC0B809314018091140166E08823B0
:1018500049F080E00E942D0D0E94030C882321F0A6
:101860000C943C0C86E0F6CF08950E94030C811185
:1018700002C00C94420C089562E070E085E191E0B2
:101880000C94B61362E070E085E191E00C94BF1314
:101890000E94D910882361F082EE91E00E94DF104F
:1018A00081E090E00E949814892B11F40C94DC10D4
:1018B00008958091E101883039F460E082EE91E092
:1018C0000E94F6101092E1010895CF93DF93D82F74
:1018D000C92F0E94480C90E080E00E9498149C015F
:1018E00080E02115310569F4ED2FFC2FD901A452B8
:1018F000BE4F8C9181932F5F3F4F25303105B1F75B
:1019000081E0DF91CF910895CF93DF93D82FC92F36
:101910000E94590CED2FFC2F90E080E02191DC011A
:10192000A452BE4F2C93019685309105B9F7DF91F3
:10193000CF910895AF92BF92CF92DF92EF92FF9234
:101940000F931F93CF93DF93362F472FE82FF0E0AD
:10195000EC50F94F71110EC06491762F862FDF91F4
:10196000CF911F910F91FF90EF90DF90CF90BF909C
:10197000AF900895C72FD0E0249186E0689F700152
:1019800011240FEF10E0C701B8010E94412F832FEF
:1019900090E0880F991F35E5369FF001379FF00DD5
:1019A00011248E1B9F0B982F990F980FF801EC1B99
:1019B000FD0B2E9FD0012F9FB00D1124EB2F949F74
:1019C000A0011124452F55276801C41AD50AA60184
:1019D000249F6001259FD00C11248D2D5801A91A38
:1019E000B108AC9EA001AD9E500DBC9E500D1124BF
:1019F000452F5527041B150B209FA001219F500D3B
:101A0000112463307105D9F09CEFE91693E0F906D3
:101A100068F461307105B9F062307105C1F09FEF73
:101A2000E916F10448F48B2FE52F06C064307105E8
:101A300089F066307105B9F36E2F722F90CFED2DBE
:101A4000822F2B2FF9CFE22F2D2D8B2FF5CF852F26
:101A5000E22FF7CF822F252FEFCFE5E2F1E0808351
:101A600061830895CF93DF93982F762F842FE90118
:101A7000692F0E949A0C798368838A83DF91CF91C2
:101A8000089580911202982F9E7F39F4809112025E
:101A9000817082608093120208958430B8F70895AF
:101AA00088E090E00C94772F0F931F93CF93DF93F0
:101AB0008B01D82FC92F0E94410DA8016D2F7C2FBB
:101AC00088E090E0DF91CF911F910F910C94952FBA
:101AD000E2E1F2E083E0808311828FEF82838383EF
:101AE0001482EFE0F2E082818360828363E070E041
:101AF0008FEF9FEF0C94540D8091BD0280FF76C054
:101B00008BED96E09F938F930E9440068091BD02DB
:101B10000F900F9080FF6AC08091120281701F9217
:101B20008F938EEB96E09F938F930E944006809157
:101B3000BD020F900F900F900F9080FF57C08091C3
:101B4000120286951F928F9383EA96E09F938F935C
:101B50000E9440068091BD020F900F900F900F9051
:101B600080FF44C0809113021F928F9389E896E012
:101B70009F938F930E9440068091BD020F900F901B
:101B80000F900F9080FF32C0809114021F928F93AC
:101B90008FE696E09F938F930E9440068091BD024E
:101BA0000F900F900F900F9080FF20C08091150232
:101BB0001F928F9385E596E09F938F930E94400636
:101BC0008091BD020F900F900F900F9080FF0EC07C
:101BD000809116021F928F9389E396E09F938F93D3
:101BE0000E9440060F900F900F900F900895CF9392
:101BF000DF9300D000D0CDB7DEB7809116028330DE
:101C000018F48F5F80931602809112029091130254
:101C1000A0911402B091150289839A83AB83BC838F
:101C2000BC01CD010F900F900F900F90DF91CF91DD
:101C30000C94540DCF93DF9300D000D0CDB7DEB716
:101C400080911602882319F08150809316028091AA
:101C5000120290911302A0911402B091150289838F
:101C60009A83AB83BC83BC01CD010F900F900F9082
:101C70000F90DF91CF910C94540D8091150208952F
:101C800070E00C947911609126018091120280FF1E
:101C90000AC08091250123E0829FC0011124865152
:101CA0009E4F0C94400E809127019091280123E0D3
:101CB000829FF0011124E651FE4F891750F71182DF
:101CC000108212828F5F3396F8CFCF93DF9300D0CC
:101CD00000D0CDB7DEB7809112028E7F80931202C2
:101CE0008091120290911302A0911402B0911502FA
:101CF00089839A83AB83BC83BC01CD010E94540DC0
:101D00008091BD0280FF0FC08091120281701F92EE
:101D10008F938BEB94E09F938F930E9440060F90DC
:101D20000F900F900F9080911102816080931102AB
:101D30009FEFA0E7B2E09150A040B040E1F700C0B3
:101D400000000F900F900F900F90DF91CF910C94A7
:101D5000430E809112028E7F809312028091BD0209
:101D600080FF0CC01F921F9281E894E09F938F9395
:101D70000E9440060F900F900F900F9080911102DB
:101D80008160809311022FEF80E792E02150804024
:101D90009040E1F700C000000C94430E90911202B5
:101DA00090FF14C0909127012091280133E0939F68
:101DB000F0011124E651FE4F921710F00C94430EDF
:101DC0008183608342839F5F3396F6CF0895EF92BD
:101DD000FF920F931F93CF93DF9300D000D000D0DA
:101DE0000F92CDB7DEB7182F062FF42EE22E80917A
:101DF000120280FF5AC0E82FE695F0E0E458FE4F4B
:101E0000908190930F028E7F823059F49E012F5F54
:101E10003F4F812F0E94320D4B8169818A810E9440
:101E2000CE0E80911302811308C08091140280139A
:101E300004C0809115028F1529F0809111028260F3
:101E4000809311021093130200931402F092150272
:101E5000EE20C1F18091120290911302A091140220
:101E6000B09115028C839D83AE83BF83BC01CD01ED
:101E70000E94540D8091BD0280FF17C08091150211
:101E80001F928F93809114021F928F93809113025F
:101E90001F928F938CE594E09F938F930E9440064E
:101EA0000FB6F894DEBF0FBECDBF27960FB6F894DD
:101EB000DEBF0FBECDBFDF91CF911F910F91FF907D
:101EC000EF9008958091BD0280FFEFCF1F92FF92A7
:101ED0001F920F931F921F9385E394E0DDCF282F6D
:101EE000E2E1F2E0818143816281885F0C94E70E38
:101EF00081E00C946F0F282FE2E1F2E081814381B1
:101F0000628188500C94E70E81E00C947B0F282F9F
:101F1000E2E1F2E0628131E1630F08F46FEF4381A7
:101F200081810C94E70E81E00C94870F282FE2E169
:101F3000F2E0628131E1631B08F460E0438181815A
:101F40000C94E70E81E00C94960F282FE2E1F2E06A
:101F5000438131E1430F08F44FEF628181810C949A
:101F6000E70E81E00C94A50F282FE2E1F2E0438117
:101F700031E1431B08F440E0628181810C94E70E5B
:101F800081E00C94B40F21E00C94E70E20E00C9457
:101F9000E70ECF93DF9300D000D0CDB7DEB78091AE
:101FA000120280FF46C0817082608093120280918D
:101FB0001102816080931102662389F180911202DF
:101FC00090911302A0911402B091150289839A8313
:101FD000AB83BC83BC01CD010E94540D8091BD0236
:101FE00080FF0FC08091120286951F928F938FE71A
:101FF00095E09F938F930E9440060F900F900F9053
:102000000F904091150260911402809113020F907D
:102010000F900F900F90DF91CF910C94C60F80918D
:10202000BD0280FFEECF1F9281E08F9381E695E0A5
:10203000E0CF0F900F900F900F90DF91CF91089508
:10204000682F81E00C94C90F81E00C942010682F58
:102050009091120296958FEF890F913009F481E0EB
:102060000C94C90F81E00C94271061E00C94C90F07
:10207000809112028160809312028091BD0280FFE4
:102080000DC01F9281E08F9383EF94E09F938F9315
:102090000E9440060F900F900F900F9080911202B7
:1020A00086950C9435108091BD0280FF10C0809100
:1020B0001202809581701F928F938AE295E09F9320
:1020C0008F930E9440060F900F900F900F90809179
:1020D000120280FD0C94650E0C94381060E00C9494
:1020E000C90F80910E02811163C08091BD0280FFF3
:1020F00014C082E296E09F938F930E9440068091E5
:10210000BD020F900F9080FF08C08CE096E09F9377
:102110008F930E9440060F900F900E94D82181114A
:1021200010C08091BD0280FF08C084EE95E09F93AF
:102130008F930E9440060F900F900E946E220E9483
:10214000680D0E94500D60931202709313028093E9
:102150001402909315028091110283608093110202
:102160006E7FC1F48091BD0280FF08C08BE995E0CD
:102170009F938F930E9440060F900F900E94680DCE
:102180000E94500D60931202709313028093140208
:10219000909315020E94410D0E947C0D80911202C5
:1021A00080FF03C086950E946E1081E080930E022E
:1021B0000895809111020895109211020895CF930D
:1021C000DF93EC0185E0E2E1F2E0DE0101900D92A7
:1021D0008A95E1F780910F0290911002A09111026F
:1021E0008D839E83AF83DF91CF9108951F93CF930B
:1021F000DF93EC01162F8F8180FF0CC0888180FF58
:1022000015C08091120281608093120288818695A8
:102210000E94C90F8F8181FF0CC0212F4B816A81E1
:102220008981DF91CF911F910C94E70E0E94A90E36
:10223000F1CFDF91CF911F910895FA018111099497
:10224000FB01FDCF1F93CF93DF93EC01FB011281C4
:10225000111110C00E94C2208272FE01E25CFC4596
:10226000E431F10508F043C0E754F04D0C94692FB8
:102270000E945310812FDF91CF911F91089542E367
:1022800050E164E270E10E941D11F4CF44E250E19C
:1022900062E370E1F8CF44E85FE068E77FE0F3CF06
:1022A00048E75FE064E87FE0EECF42EA5FE063E9A1
:1022B0007FE0E9CF43E95FE062EA7FE0E4CF40EC12
:1022C0005FE061EB7FE0DFCF41EB5FE060EC7FE060
:1022D000DACF4AE15EE067EF7DE0D5CF47EF5DE022
:1022E0006AE17EE0D0CF81E00E943510C3CF11E0DB
:1022F000C1CF9C01AB01569A6BB16F7B7BB170640F
:10230000EFB7F894CA01880F991F840F951F820FA9
:10231000931F8217930741F4EFBF8FE594E0019775
:10232000F1F700C000000895D9014D919D0158E0DA
:102330007BB9000000C047FF6BB9440F000000C02C
:1023400000C000C06BB900C05A9591F7E2CF0F935F
:102350001F93CF93DF93C62FD42F022FFC018281CE
:102360008823C9F0609319020E94DB23909318021E
:102370008093170280E28C0F883008F050C0C7703D
:1023800081E001C0880FCA95EAF7DF91CF911F91D4
:102390000F910C94BC1710911902161335C080913F
:1023A0001702909118020E94E723883C910560F57E
:1023B000C0E2CD0F1D17B9F080E2810F883040F4E4
:1023C000177081E001C0880F1A95EAF70E94C317C1
:1023D000C83048F481E09D2F977001C0880F9A950E
:1023E000EAF70E94BC17802F0E94A917C830B8F4E2
:1023F000D77081E001C0880FDA95EAF7DF91CF91BD
:102400001F910F910C94C31780E28C0F883038F421
:10241000C77081E001C0880FCA95EAF7EFCFDF915E
:10242000CF911F910F9108959C01CB01233F4CE563
:10243000340769F190F4283DFCE53F0721F1293D7F
:102440004CE5340781F1273D3C45B1F0FC01828128
:10245000882361F1109219020895253FFCE53F079A
:10246000D1F0263F4CE53407D1F0243F3C4571F7CD
:1024700027E245EE64EE03C026E241EE61EE0E94E3
:10248000A71180E0089527E245EE65EEF8CF26E239
:1024900041EE60EEF4CF26E241EE62EEF0CF27E2AD
:1024A00045EE66EEECCF28E241E0EFCF81E0089503
:1024B000CF93DF93EC01FB018281882309F4C9C02B
:1024C000C631FCE5DF07E0F4C2309CE5D907F0F047
:1024D0000E94EB219093C4028093C302C631ECE5C5
:1024E000DE0720F5C230FCE5DF0798F48091C302D7
:1024F0009091C4020E94F9210E94801A80E006C0D7
:102500009E012A5F3C452930310510F3DF91CF91C0
:102510000895FE01E350FC458091C3028160E331E0
:10252000F10588F4E353F04D0C94692FCA5FDC4544
:10253000C930D105D8F6C052D04DFE010C94692F98
:102540008091C30282608093C302D0CF8091C30286
:102550008460F9CF8091C3028860F5CF8091C40276
:1025600081608093C402C2CF8091C4028260F9CF9F
:102570008091C3028061E7CF8091C3028062E3CF84
:102580008091C3028064DFCF0E94801A8091C302D1
:102590008068D9CF8091C3028C60D5CF8091C4026E
:1025A0008360DFCF8091C3028E7FCDCF8091C30245
:1025B0008D7FC9CF8091C3028B7FC5CF8091C3022D
:1025C000877FC1CF8091C4028E7FCBCF8091C40220
:1025D0008D7FC7CF8091C3028F7EB5CF8091C3021C
:1025E0008F7DB1CF8091C3028F7BADCF0E94801AC7
:1025F0008091C3028F77A7CF8091C302837FA3CF3F
:102600008091C4028C7FADCF8091C30282FB992759
:1026100090F921E0922790FB82F990FB83F993CF08
:102620008091C402982F909591708E7F892B90FB9A
:1026300081F997CF0E94801A9091C302892F97FB4E
:1026400087F9805880CF81E00E9470224FCF80E0D0
:10265000FBCF81E05BCFCF93DF93EB0186319C45CD
:1026600011F50E94C2209A81992399F08A7A91E00B
:1026700009F490E090931A02811109C089E20E9446
:102680009D200E94112180E0DF91CF91089585E384
:10269000F6CF80911A02811104C089E20E94A42021
:1026A000F0CF85E3FBCF81E0EFCF8EE1489B02C006
:1026B0008150E1F7489BFECF0895589880E28A95B3
:1026C000F1F7589A0895FC013BE03A95F1F720E0C4
:1026D00090E080E031E040E14A95F1F7880F489BB7
:1026E00002C08160232742E04A95F1F7000040E1F3
:1026F0004A95F1F79F5F6913EECF90E19A95F1F754
:1027000099B132E03A95F1F7000040E14A95F1F7CE
:10271000917092272081920F90830895EF92FF92FB
:102720000F931F93CF93DF930F92CDB7DEB719822C
:102730008C017C01E60EF11C0E151F0561F481E091
:102740009981911180E00F90DF91CF911F910F91AE
:10275000FF90EF9008950E94551368E0CE01019616
:102760000E946313F80181938F01E6CF90931D02BD
:1027700080931C0260931B02509A589A089590937C
:102780001D0280931C0260931B025098589AE89A8D
:10279000E9E6F0E080818C7F808308956150770BBB
:1027A00091E001C0990F6A95EAF720E031E09111BC
:1027B00008C0222391F0589A80E28A95F1F7589840
:1027C0000895492F482339F0589A232740E24A9523
:1027D000F1F79695ECCF5898F9CF5898EDCFFF9236
:1027E0000F931F93CF93DF93EC018C01060F111D04
:1027F000C017D10731F4DF91CF911F910F91FF9056
:102800000895F9900E945D1368E08F2D0E94CE1309
:10281000EFCF1F920F920FB60F9211240F931F93B9
:102820002F933F934F935F936F937F938F939F93D8
:10283000AF93BF93EF93FF93CF93DF930F92CDB7F7
:10284000DEB719820E94551367E0CE0101960E94FF
:102850006313082F069506950695982F9295957007
:10286000202F2570920F292F2370969596958770AB
:10287000920F891344C08981811141C080911B024C
:102880008017E8F120E12A95F1F7589A509A82E0F2
:102890008A95F1F700C0A8E00A9FC00111240091B9
:1028A0001C0210911D02080F191F5898F80165812C
:1028B000662321F0868197810E94EF130E945D13A9
:1028C000F0E1FA95F1F758985098589A20E12A9536
:1028D000F1F7D80112966C911297662331F1139695
:1028E0008D919C910E948E13D801ED91FC918823CB
:1028F00011F088E001C082E080830E9455130F90A0
:10290000DF91CF91FF91EF91BF91AF919F918F9107
:102910007F916F915F914F913F912F911F910F91F7
:102920000F900FBE0F901F901895ED91FC91E1CF85
:102930000F931F93CF93DF939C0180911B0282170B
:1029400013060CF471C0890183E0000F111F8A95F2
:10295000E1F7C0911C02D0911D02C00FD11FF89465
:10296000509A589885E08A95F1F70000922F969535
:1029700095702570920F892F837096959695980F74
:10298000092B0E945D1300C067E0802F0E94CE13C8
:1029900080E18A95F1F75098589A489B17C087E0D4
:1029A00090E0489915C06D81662321F18E819F8149
:1029B0000E948E1381111EC0509A589AE881F981A5
:1029C00082E08083789482E090E00DC000C0E5CF83
:1029D000019771F4509A589AE881F98181E08083D7
:1029E000789481E090E0DF91CF911F910F9108954D
:1029F00000C0D7CF0E94551380E28A95F1F758980E
:102A0000509A80E18A95F1F76A81662321F08B81E3
:102A10009C810E94EF130E945D13E881F98110826E
:102A2000789490E080E0DFCF84E090E0DCCF90937A
:102A30002302809322020895E0912202F091230262
:102A4000309721F00190F081E02D099480E0089505
:102A5000EF92FF920F931F93CF93DF93EC01E091DE
:102A60002202F0912302309709F442C080913C0188
:102A7000882341F08091C30287FF04C08881898345
:102A800085E088830280F381E02DCE010995809155
:102A9000BD0282FF2DC080FF04C08CEF97E00E9432
:102AA000A7057E0188E0E80EF11C06EF17E0809193
:102AB000BD0280FF0BC088811F928F931F930F93DD
:102AC0000E9440060F900F900F900F902196CE1508
:102AD000DF0569F78091BD0280FF0AC084EF97E0AF
:102AE000DF91CF911F910F91FF90EF900C94A7056C
:102AF000DF91CF911F910F91FF90EF900895DC012E
:102B0000E0912202F0912302309739F082E08C9319
:102B10000480F581E02DCD010994089520912002D3
:102B2000309121022817390771F090932102809388
:102B30002002E0912202F0912302309721F00680DA
:102B4000F781E02D0994089520911E0230911F0213
:102B50002817390771F090931F0280931E02E091AD
:102B60002202F0912302309721F00084F185E02DBC
:102B70000994089585B7806885BF85B7806885BF4B
:102B80000895089508950C94C11508950C94C515E1
:102B90000E94BA150E94C2150C94C3150C94030C24
:102BA0000E94D2230E943E0A0E943E240E9471107D
:102BB0000C94C615CF93C82F8091BD0282FF1EC012
:102BC00080FF1CC085E198E00E94A7058091BD02AE
:102BD00080FF14C01F92CF9380E198E09F938F9362
:102BE0000E9440068091BD020F900F900F900F90B1
:102BF00080FF04C08EE098E00E94A7058C2FCF9143
:102C00000C946B07BF92CF92DF92EF92FF920F93DB
:102C10001F93CF93DF9300D000D00F92CDB7DEB7D4
:102C20000E94140B0E94CE15882309F45DC085E232
:102C3000C82E82E0D82E10E000E0B02E802F0E9437
:102C4000ED09F82EF601E1906F01E81609F446C08F
:102C50008091BD0281FD0E94F3099E2D9F2580E099
:102C6000EE24E394292F2E21A9F18983BA82FE2034
:102C700081E009F480E08B830E94DB238160782F60
:102C80009D838C8349815A816B818D810E9494162A
:102C9000F801EB5DFD4F8081E826E0820E945F260F
:102CA0000E941C1590912402891779F10E941C152D
:102CB000809324020F900F900F900F900F90DF9150
:102CC000CF911F910F91FF90EF90DF90CF90BF9029
:102CD0000C94DA158F5FEE0C863021F60F5F1F4FD4
:102CE0000A30110509F0A9CF8FEF89838A831B82EF
:102CF0000E94DB238160782F9D838C8349815A81D8
:102D00006B818D810E949416C9CF0F900F900F9008
:102D10000F900F90DF91CF911F910F91FF90EF9047
:102D2000DF90CF90BF900895CF93DF93CDB7DEB7FC
:102D30002B970FB6F894DEBF0FBECDBF4F835887D9
:102D400069877A878B871E8285E0FE013796DE01D0
:102D5000119601900D928A95E1F749815A816B8114
:102D60007C818D819E812B960FB6F894DEBF0FBEBD
:102D7000CDBFDF91CF910C94E21CFC018081918149
:102D80000C946720CF93C82F882309F48AC0823817
:102D9000C1F40E941C1581FD84C089E30E949D201E
:102DA0000E9411212FEF31EE84E02150304080400D
:102DB000E1F700C0000089E30E94A420CF910C94A9
:102DC00011218338A1F40E941C1580FD6AC083E59F
:102DD0000E949D200E9411219FEF21EE34E091502E
:102DE00020403040E1F700C0000083E5E5CF8438A3
:102DF000A1F40E941C1582FD54C087E40E949D200E
:102E00000E9411218FEF91EE24E0815090402040EC
:102E1000E1F700C0000087E4CFCF8CEF8C0F813A40
:102E200090F46C2F80912A0190912B010E948922AD
:102E3000882329F08C2F0E94A4200E9411218C2F1E
:102E40000E949D20BBCF80E28C0F883048F4C77071
:102E500081E001C0880FCA95EAF70E94C520AECF75
:102E60008BE58C0F833038F42C2F2452330BC9019F
:102E7000CF910C948E15E8E5EC0FE73150F4F0E0BB
:102E8000EE0FFF1FE258FE4F80819181CF910C948D
:102E9000A415C03F30F08C2F0E94EB24CF910C94EE
:102EA000D225CF910895882309F452C0823871F455
:102EB0000E941C1581FF4CC089E30E949D200E9446
:102EC000112189E30E94A4200C941121833859F424
:102ED0000E941C1580FF3CC083E50E949D200E943B
:102EE000112183E5EFCF843859F40E941C1582FF2D
:102EF0002FC087E40E949D200E94112187E4E2CF29
:102F00009CEF980F913AF0F290E2980F983050F4BD
:102F1000877091E001C0990F8A95EAF7892F0E9486
:102F2000CB20D2CF9BE5980F933020F490E080E047
:102F30000C948E1598E5980F973120F490E080E07E
:102F40000C94A415803F20F00E9453250C94D225A8
:102F50000895CF93C82F0E94C216C93349F42FEFAA
:102F600087EE93E0215080409040E1F700C00000E0
:102F70008C2FCF910C945317882321F00E94C520E9
:102F80000C9411210895882321F00E94CB200C94E9
:102F900011210895AF92BF92CF92DF92EF92FF92EC
:102FA0000F931F93CF93DF9300D000D00F92CDB734
:102FB000DEB76C016D837983FC01058102950F708A
:102FC000128111110E94E4200E94BB20E82E882368
:102FD00091F01123D1F08981807F803421F08D819F
:102FE000805E883090F082E00E945C210E94BB20CD
:102FF00091E0E82EE926A980A2949FE0A922B12CB5
:10300000F501E751F04D0C94692FE12CF4CF0981C3
:103010000F70F981F07F11F00295007F1123B1F05C
:10302000002361F08D81805E883018F02D812111A0
:1030300009C0802F0E94C5200E9411218D810E940D
:10304000C21615C0802F0E94D620F6CF8D810E9417
:103050005317002361F08D81805E883018F04D8118
:10306000411133C0802F0E94CB200E94112148E0E3
:10307000A41AB10854E0A516B10420F40E941C154E
:103080000E946B07EE2009F4D6C10E94B72080FD94
:10309000D2C1F60112820E94B1200E94BC1EC6015C
:1030A0000E94421A0E94B1200F900F900F900F9033
:1030B0000F90DF91CF911F910F91FF90EF90DF90D4
:1030C000CF90BF90AF900C94ED1E802F0E94DC201B
:1030D000CCCF59815F70F52E6981607F603219F025
:1030E000F29480EFF8227D81772369F0713049F105
:1030F000112391F1002351F1F601858180FF9ECFCC
:103100008F70858323C0112381F0011106C00E94B6
:10311000F8208F290E94BC17AACF0130C1F70E9466
:10312000F8208F290E94FE20A2CF011106C00E9424
:1031300007218F2D0E94C3179ACF013009F497CF32
:10314000F6CF112329F0033008F091CF8F2DE2CF75
:10315000023008F08CCFEDCF002359F3FD81F93315
:1031600049F42FEF47EE53E0215040405040E1F743
:1031700000C000008D810E94531779CF8981869508
:103180008695837069F0813009F071CF8D819981C6
:103190009370111102C090E080E00E94A41567CFE7
:1031A0008D8199819370111102C090E080E00E949E
:1031B0008E155DCF8D81112329F00E94EB240E9492
:1031C000D22555CF0E945325FACF8981837009F00B
:1031D00050C011114CCF4D81429546954770440F18
:1031E000440F8D818F7090E0B0E0A0E0042E04C009
:1031F000880F991FAA1FBB1F0A94D2F76D8100E0A8
:1032000010E0980164FF0FC00FE010E020E030E014
:1032100004C0000F111F221F331F4A95D2F70095DB
:1032200010952095309579817695769573707D838C
:10323000B901A801482B592B6A2B7B2B49835A8350
:103240006B837C835D8169817A818B819C81523023
:1032500051F0533059F0513019F00E94341E07CF0D
:103260000E940C1E04CF0E945C1E01CF0E940A1E09
:10327000FECE112309F445C0698160FFF8CE4D816F
:10328000429546954770440F440F8D818F7090E0B2
:10329000B0E0A0E0042E04C0880F991FAA1FBB1F36
:1032A0000A94D2F7ED8100E010E09801E4FF0FC02E
:1032B0000FE010E020E030E004C0000F111F221FDB
:1032C000331F4A95D2F70095109520953095F981D6
:1032D000F695F695F370FD83B901A801482B592B9B
:1032E0006A2B7B2B49835A836B837C83F230A1F05A
:1032F000F330C9F0F13049F0CB01BA010E947B1FD5
:10330000B6CE798171FFB3CEBACF69817A818B81D4
:103310009C810E94531FABCE69817A818B819C81F5
:103320000E94A31FA4CE69817A818B819C810E9417
:10333000861E9DCE59815F705983112329F0852FF8
:103340000E94BC1E8D81E6CE8D810E94C3178981AB
:103350000E94ED1E8CCE6D81623F99F160F4603F5A
:10336000D9F0613F39F1112309F444C0011166CE4F
:1033700089818F7123C07D81733F41F1743F99F73B
:10338000112371F189818F7189830E94BC1E63E0D2
:1033900089810E9447216BCE112341F0023008F051
:1033A00066CE89818F710E94221F61CE033008F0A2
:1033B0005ECEF7CF89818F71112351F20E94BC1E1E
:1033C00056CE89818F711123C9F3C2CF112329F001
:1033D00089818F710E94971E4ACE0E94921E47CE0D
:1033E00081E00E945C21023008F441CE82E00E941C
:1033F0005C213DCE002361F09D81993309F0BACE66
:10340000EFEFF7EE23E0E150F0402040E1F7B0CEDF
:1034100089818F719DCF49814F706D81C6010E9456
:10342000DB070E947C1D23CE49814F706D81C60150
:103430000E94DE071CCE0F900F900F900F900F9000
:10344000DF91CF911F910F91FF90EF90DF90CF9080
:10345000BF90AF9008950F931F93CF93DF93EC012C
:10346000688179818A810E9473208C010E94CB1F20
:103470000E94091EB801CE01DF91CF911F910F91DB
:103480000C94CA17CF93DF93EC018B819C81892B1D
:1034900029F08981988189238F3F59F4DF91CF9159
:1034A0000895CE010E942B1ACE01DF91CF910C948A
:1034B0004E07CE010E9483078111F3CF0E94BB20EB
:1034C000882361F38A81882349F382E0DF91CF91D9
:1034D0000C945C210E94E4200E94F5200E9411219E
:1034E0000E947E270E94D22590E080E00E948E15E7
:1034F00090E080E00C94A4150E94AB200C946A1A12
:103500000E94D3200C947C1A282F892F82958F70CB
:10351000903C80F48A30B0F4843020F4823090F40F
:1035200080E008958630E1F781E0283E88F0213F71
:10353000B9F70EC08C3011F08F3091F793FB8827CC
:1035400080F9089581E0203F39F018F4283E40F7D3
:103550000895243F29F7FCCF08950E9467200C941A
:10356000841ACF93DF9300D000D00F92CDB7DEB78F
:103570000F900F900F900F900F90DF91CF910895C3
:10358000CF93DF9300D000D000D0CDB7DEB7269622
:103590000FB6F894DEBF0FBECDBFDF91CF91089577
:1035A0001F93CF93DF93E091300216E080913102B8
:1035B0008E1304C0DF91CF911F910895CE2FD0E0DC
:1035C0001E9FF0011124EE5CFD4F4081518162810C
:1035D0007381848195810E94C01AFE013196E77043
:1035E000E5CF409162025091630260916402709154
:1035F000650280916602909167020C94C01A1F9335
:10360000CF93DF9380916702807FA9F48091640259
:10361000882389F080913002C0913102709162025A
:1036200060916302A0916502B0916602D62FD72304
:1036300016E0C81304C0DF91CF911F91089590E068
:10364000109711F0DF3F19F401968770F2CF189FA1
:103650009001199F300D1124F901EE5CFD4F41815D
:103660006413F2CF40814713EFCF42814111ECCF79
:10367000438154814A1B5B0B483C510528F78091DC
:1036800067028F70806180936702F901E95CFD4FEA
:1036900080818F708061808382E692E00E94421A6E
:1036A000DF91CF911F910C94D01AAF92BF92CF921D
:1036B000DF92EF92FF920F931F93CF93DF93CDB7DB
:1036C000DEB72B970FB6F894DEBF0FBECDBF8C01CF
:1036D00085E0F801DE01179601900D928A95E1F7D9
:1036E000F80140815181E28082E6A82E82E0B82E66
:1036F00060916502709166026115710549F09091C3
:10370000620220916302892F82238F3F09F045C115
:10371000EE2009F453C14F8358878F8198850E940A
:10372000AD1AF82E882309F449C186E0F801A2E613
:10373000B2E001900D928A95E1F782E692E00E9454
:10374000BD160E94FF1A26C180916702382F307F74
:10375000683C710508F07CC03111B5C0FE2C251302
:1037600024C0941322C0E11020C08F708061809328
:1037700067020E94F11A82E692E00E94421A80914A
:103780006702F80185838F2D2B960FB6F894DEBF64
:103790000FBECDBFDF91CF911F910F91FF90EF90A2
:1037A000DF90CF90BF90AF900895CD2829F0842F5F
:1037B00085238F3F09F084C080E0F82FF170DF2E61
:1037C000E09130022091310236E080FD1CC0EE20F5
:1037D000D1F280916702816080936702F12CD3CF90
:1037E0008E2F90E03E9FF0011124EE5CFD4F618131
:1037F000651306C06081641303C062816E11E7CF58
:10380000FC013196E770E213EBCF4F8358878F812D
:1038100098850E946720292F22952F70903260F0A2
:10382000225F2F70223078F49F7051F0F80195815B
:10383000907F31F4D12C0AC09F7011F08823D1F30E
:10384000805E8830B8F3C8010E94421AFD2C9BCFDD
:1038500031116EC06E2D7A858B850E94B11A82E679
:1038600092E00E94421A86E0F50111928A95E9F7EA
:103870000E94F11AB3CF86E0F801A2E6B2E001900F
:103880000D928A95E1F77FCF4F8358878F81988576
:103890000E94AD1A81113DC08091670281608093C2
:1038A0006702C8010E94421A6ECF6E2D7A858B8501
:1038B0000E94B11A86E0F50111928A95E9F76AC073
:1038C00081E08E257ACF251306C0941304C0F80139
:1038D000EE2009F453C04F8358878F8198850E944A
:1038E000AD1A882309F46AC0EE2009F467C08091FC
:1038F0006702803270F020916202309163023A8355
:1039000029831B82DD82CC828E83CE0101960E94A8
:10391000421A86E0F801A2E6B2E001900D928A9583
:10392000E1F70E94FF1A0E94F11AFF24F3942BCFB3
:103930002513D1CF9413CFCFE110CDCFF8018583DC
:10394000C8010E94421A86E0F50111928A95E9F7B2
:103950001ACF251399CF941397CF8091670280FDDA
:103960008ACF982F907F09F486CFF8018583903F06
:1039700031F0982F907F905F8F70892B8583C801DD
:103980000E94421A86E0F801A2E6B2E001900D9290
:103990008A95E1F70E94F11AF6CEC380D480F090A8
:1039A0006402F601E61BF70BBF01F110CDCE683CB7
:1039B000710508F07ACFFE2CE110CBCFC8010E9430
:1039C000421AB3CF1F93CF93DF93CDB7DEB72C97B7
:1039D0000FB6F894DEBF0FBECDBF4F8358876987FF
:1039E0007A878B879C87CE0107960E94551B882378
:1039F00069F08A859B85892B39F058854F81852F01
:103A000084238F3F09F071C016E05FC086E0FE019D
:103A10003796DE01119601900D928A95E1F78A851D
:103A20009B85892B89F38F81988589238F3F61F34B
:103A30002091310230E0C9010196877099274091A9
:103A400030024817190671F40E94801A1092310250
:103A50001092300286E0E2E6F2E0DF011D928A95E4
:103A6000E9F7D2CF96E0929FD001939FB00D112439
:103A7000AE5CBD4FFE01319601900D929A95E1F733
:103A8000809331020E94D01ABFCF819FC0011124C0
:103A90008E5C9D4F0E94551B8823E9F0E091300217
:103AA0001E9FF0011124EE5CFD4F40815181628127
:103AB0007381848195810E94C01A8091300290E0C8
:103AC00001968770992780933002809130029091FF
:103AD00031028913DACF2C960FB6F894DEBF0FBEF1
:103AE000CDBFDF91CF911F91089569857A858B8530
:103AF0009C850E94C01A88CFEF92FF920F931F936C
:103B0000CF93DF938C01892B89F0F12CEE24E39481
:103B1000E8012196F8018491843709F458C0A0F493
:103B2000823009F43FC048F48130D1F0DF91CF9169
:103B30001F910F91FF90EF9008959CEF980F903791
:103B4000A8F70E94C2160AC0853709F44EC09CE748
:103B5000980F903758F78F770E9453178E0116C031
:103B60000E5F1F4FFE01849190E2980F983060F431
:103B70008770FE2D01C0FF0F8A95EAF78F2F0E94F4
:103B8000E7200E94112102C00E94C2168F2D8823B7
:103B900009F4BECFEFE9FFE03197F1F700C0000074
:103BA0008150F5CF0E5F1F4FFE01849190E2980F78
:103BB000983050F48770FE2D01C0FF0F8A95EAF708
:103BC0008F2F0E94ED20DDCF0E945317DFCF0E5FB5
:103BD0001F4FFE01C491CC23C9F28FE99FE00197EA
:103BE000F1F700C00000C150F6CF0E5F1F4FFE017D
:103BF000F490CCCF08950C94FA1D0E94FB1D6093A5
:103C000094027093950280939602909397020C947D
:103C10006A1A08950C94FD1DCF93DF9300D000D055
:103C2000CDB7DEB769837A838B839C8380919402BE
:103C300090919502A0919602B091970229813A81C4
:103C40004B815C81282B392B4A2B5B2B29833A83B0
:103C50004B835C83CA01B9010F900F900F900F90B6
:103C6000DF91CF910C94FD1DCF93DF9300D000D056
:103C7000CDB7DEB769837A838B839C83809194026E
:103C800090919502A0919602B091970229813A8174
:103C90004B815C81282339234A235B2329833A8380
:103CA0004B835C83CA01B9010F900F900F900F9066
:103CB000DF91CF910C94FD1DCF93DF9300D000D006
:103CC000CDB7DEB769837A838B839C83809194021E
:103CD00090919502A0919602B091970229813A8124
:103CE0004B815C81282739274A275B2729833A8320
:103CF0004B835C83CA01B9010F900F900F900F9016
:103D0000DF91CF910C94FD1D0C94B1060E94841E8E
:103D10006093900270939102809392029093930229
:103D20000C946A1A60E070E0CB010C94861E0F932D
:103D30001F93CF93DF9300D000D0CDB7DEB741E023
:103D400050E060E070E08A019B0104C0000F111F89
:103D5000221F331F8A95D2F709831A832B833C8352
:103D6000C901B8010F900F900F900F90DF91CF9184
:103D70001F910F910C94861E0F931F93CF93DF9387
:103D800000D000D0CDB7DEB741E050E060E070E099
:103D900004C0440F551F661F771F8A95D2F7809184
:103DA000900290919102A0919202B09193028A01A7
:103DB0009B01082B192B2A2B3B2B09831A832B835E
:103DC0003C83C901B8010F900F900F900F90DF91C5
:103DD000CF911F910F910C94861E0F931F93CF9339
:103DE000DF9300D000D0CDB7DEB741E050E060E017
:103DF00070E004C0440F551F661F771F8A95D2F7E5
:103E000040955095609570958091900290919102A7
:103E1000A0919202B09193028A019B010823192379
:103E20002A233B2309831A832B833C83C901B801CE
:103E30000F900F900F900F90DF91CF911F910F91E6
:103E40000C94861E0F931F93CF93DF9300D000D066
:103E5000CDB7DEB741E050E060E070E004C0440F51
:103E6000551F661F771F8A95D2F780919002909117
:103E70009102A0919202B09193028A019B010827BE
:103E800019272A273B2709831A832B833C83C901DF
:103E9000B8010F900F900F900F90DF91CF911F916D
:103EA0000F910C94861ECF93DF9300D000D0CDB736
:103EB000DEB769837A838B839C8380919002909193
:103EC0009102A0919202B091930229813A814B8193
:103ED0005C81282B392B4A2B5B2B29833A834B831C
:103EE0005C83CA01B9010F900F900F900F90DF9182
:103EF000CF910C94861ECF93DF9300D000D0CDB726
:103F0000DEB769837A838B839C8380919002909142
:103F10009102A0919202B091930229813A814B8142
:103F20005C81282339234A235B2329833A834B83EB
:103F30005C83CA01B9010F900F900F900F90DF9131
:103F4000CF910C94861ECF93DF9300D000D0CDB7D5
:103F5000DEB769837A838B839C83809190029091F2
:103F60009102A0919202B091930229813A814B81F2
:103F70005C81282739274A275B2729833A834B838B
:103F80005C83CA01B9010F900F900F900F90DF91E1
:103F9000CF910C94861E0895292F220FE22FE90F4E
:103FA000EE0FE80F8E2F877041E001C0440F8A9515
:103FB000EAF7E695E695E69585E0E89FF00111249D
:103FC000E859FD4F30E020E070E05191DF0111979A
:103FD000CB01022E02C0969587950A94E2F7817074
:103FE00081958527842385278C932F5F3F4F25302C
:103FF000310559F70895292F220FE22FE90FEE0F0F
:10400000E80F9E2F9770E695E695E69585E0E89F88
:10401000F0011124E859FD4F50E040E080E021918B
:1040200030E0092E02C0369527950A94E2F72170F8
:104030003327042E01C0220F0A94EAF7822B4F5F28
:104040005F4F4530510559F70895BF92CF92DF92E7
:10405000EF92FF920F931F93CF93DF938C01C09049
:104060009002D0909102E0909202F09093028091A1
:10407000940290919502A0919602B0919702C82A5D
:10408000D92AEA2AFB2ACFE1D0E0BC2ED701C6010B
:104090000C2E04C0B695A795979587950A94D2F7EC
:1040A00080FD0EC0219788F7B12C8B2DDF91CF9129
:1040B0001F910F91FF90EF90DF90CF90BF900895E8
:1040C000B8018C2F0E94FB07019761F3EECFCF93CD
:1040D000DF93D82FC92F0E9425206D2F7C2FDF91D1
:1040E000CF910C94FB071F93CF93DF93162FD72FFD
:1040F00090912F02992339F0862F972FDF91CF913E
:104100001F910C946720882391F0862F972F0E948F
:104110002520C82F682F812F9D2F0E94CC1F612F33
:104120007D2F8C2FDF91CF911F910C94FB07862F51
:10413000972F0E94FB1FC82FF2CF682F80912A0172
:1041400090912B010C942F23682F80912A0190913C
:104150002B010C943A2380912A0190912B010C940D
:104160004523809198028595859585950895809140
:1041700098028770089590919802977081E009F4F1
:1041800080E008958091BC0208959091BC02982B24
:104190009093BC020895982F90958091BC0289233A
:1041A0008093BC0208951092BC0208959091BB02C6
:1041B000982B9093BB020895982F90958091BB0205
:1041C00089238093BB0208951092BB0208959091B9
:1041D000BA02982B9093BA020895982F90958091E7
:1041E000BA0289238093BA0208951092BA02089500
:1041F00080919902089508950C94FB209091990262
:10420000981721F0809399020C94FC2008958091D6
:104210009902882329F01092990280E00C94FC20E6
:104220000895E0912A01F0912B018091BC028083D6
:10423000E0912A01F0912B0180819091BB02892BA2
:104240008083E0912A01F0912B0180819091BA0244
:10425000892B808390919902992381F0E0912A0122
:10426000F0912B018081892B808380912A0190918C
:104270002B010E94752281110E94072180912A0141
:1042800090912B010C94281508950C94442198E0EA
:10429000899F90011124622B609398020E94BC1E9A
:1042A000809198028595859585950C94452110926D
:1042B000980280E00C944521909198028095892382
:1042C00080939802282F277071F4282F082E000C55
:1042D000330B9217130639F08595859585950E94C5
:1042E000ED1E0C94572108959093BD018093BC015D
:1042F00008950F931F93462F572FBC01CB01AA2778
:10430000BB270097A105B105E9F1AC01BD0180E132
:10431000052F162F272F33270115110521053105EC
:1043200019F0885FB901A8018A019B01F4E0369574
:10433000279517950795FA95D1F7011511052105D0
:10434000310519F08C5FB901A8018A019B01E2E0F7
:104350003695279517950795EA95D1F7011511051B
:104360002105310519F08E5FB901A8017695679591
:1043700057954795452B462B472B09F08F5F1F918B
:104380000F91089580E0C4CF829594E0899F9001B9
:1043900011242C7C869586958373282B30E0C901E7
:1043A000880F991F8A7A359527952575822B089550
:1043B00090E080E00E947D2F9C0181E02C3E3E4FEA
:1043C00009F080E0089582E090E00C946F2F83E084
:1043D00090E00C946F2FCF9384E090E00E946F2FB9
:1043E000C82F81E290E00E946F2F982F8C2FCF91E1
:1043F0000895CF93682FC92F84E090E00E94832F07
:104400006C2F81E290E0CF910C94832FAB01BC0123
:104410008FE090E00C94952FAB01BC0183E190E01C
:104420000C94952F60E070E0CB010C940C226CEEA4
:104430007EEF90E080E00E94A12F60E082E090E0BB
:104440000E94832F60E083E090E00E94832F10920F
:10445000940210929502109296021092970260E0D8
:1044600084E090E00E94832F60E081E290E00E946F
:10447000832F60E085E090E00E94832F60E086E07B
:1044800090E00E94832F6FEF87E090E00E94832FDF
:1044900040E050E0BA0188E090E00E94952F60E093
:1044A0008DE090E00E94832F40E050E0BA0188E167
:1044B00090E00E94952F60E087E190E00E94832FBA
:1044C00040E050E0BA018CE190E00E94952F60E05E
:1044D00080E290E00E94832F0C9449060C941722EE
:1044E000682F8EE090E00C94832FFC01329680912F
:1044F0003C01882321F08091C3029EE187FF96E072
:1045000080E0915008F4089521912223D1F38F5F28
:10451000F8CF9C01662301F180913C018823F1F0E2
:104520008091C30287FF1AC0462F4695469546954F
:10453000603F90F4677081E090E002C0880F991F9F
:104540006A95E2F7240F311DF901228130E028231A
:10455000392381E0232B71F480E00895F90132962C
:10456000285F3F4F8191861721F0E217F307D1F7BB
:10457000F3CF81E008959C01FC0132968FEF90E02B
:104580004191461751F08F3F19F4411101C0892F15
:104590009F5F9630A9F78F3F09F40895280F311DCA
:1045A00087FD3A95F901628308959C01FC013296DA
:1045B000285F3F4F8191861303C0DF0111971C9242
:1045C000E217F307B9F70895FC01862F86958695C3
:1045D0008695603F68F4E80FF11D677021E030E0D8
:1045E00001C0220F6A95EAF78281822B82830895A7
:1045F0008091BD0280FF0CC01F926F9386E498E00B
:104600009F938F930E9440060F900F900F900F90F2
:104610000895FC01862F869586958695603F70F4F7
:10462000E80FF11D677081E090E001C0880F6A9586
:10463000EAF7809592818923828308958091BD0253
:1046400080FF0CC01F926F9388E298E09F938F9336
:104650000E9440060F900F900F900F9008952091A8
:104660003C01222329F02091C30227FD0C94E4226F
:104670000C94BB2220913C01222329F02091C302FB
:1046800027FD0C9409230C94D522FC0132968091CD
:104690003C01882351F08091C30287FF06C08EE160
:1046A000DF011D928A95E9F7089586E0F9CF089514
:1046B00008950C9458230E9459238091FE0284305F
:1046C00049F11092BE0288E190E020E40FB6F89420
:1046D000A895809360000FBE2093600080E00E9448
:1046E0006B070E94592383B7817F846083BF83B7A0
:1046F000816083BF7894889583B78E7F83BF0FB620
:10470000F894A89580916000886180936000109271
:1047100060000FBE08950895CF930E9457230E9412
:10472000140B0E948B23C0E08C2F0E94ED09811195
:1047300005C0CF5FCA30C1F7CF91089581E0FCCFAB
:1047400008950C94A0230E94801A0E941C150E94B8
:104750006B070C94A1231F921FB61F9211248F93F5
:104760009F93AF93BF938091BE02811113C080913C
:10477000BF029091C002A091C102B091C2024196C5
:10478000A11DB11D8093BF029093C002A093C102EE
:10479000B093C202BF91AF919F918F911F901FBEA6
:1047A0001F90189582E084BD93E095BD9AEF97BD68
:1047B00080936E0008952FB7F8948091BF02909176
:1047C000C002A091C102B091C2022FBF08959C0106
:1047D0004FB7F8948091BF029091C002A091C1029E
:1047E000B091C2024FBF821B930B089578941F9221
:1047F0001FB61F9211248F939F93AF93BF93809105
:10480000BF029091C002A091C102B091C202019674
:10481000A11DB11D8093BF029093C002A093C1025D
:10482000B093C202BF91AF919F918F911F901FBE15
:104830001F90189581E08093E00080E28093D8007B
:104840001092C9008FE19EE40197F1F700C00000CB
:1048500087E090EBDC018093080390930903A09319
:104860000A03B0930B0388E19CE00FB6F894A89577
:10487000809360000FBE90936000FFCFCF93DF93D3
:1048800000D000D0CDB7DEB70E94D821811102C080
:104890000E946E220E94E3218093BD020E94EB21C0
:1048A0009093C4028093C3020E94E721282F30E036
:1048B00050E040E029833A834B835C83CA01B9010D
:1048C0000F900F900F900F90DF91CF910C940A1ED4
:1048D0008091CE0280FF12C06091300185E0689F18
:1048E000B0011124759567957595679560387105C8
:1048F000A8F561157105A1F1862F089581FF09C002
:104900006091300185E0689FB0011124759567952D
:10491000EDCF6091300182FD0AC08091CD028823E5
:10492000D1F090912F0160913001891728F085E036
:10493000689FB0011124DACF869FB001112485E071
:10494000869F9001879F300D1124692F70E0C90167
:104950000E94552FCBCF65E070E0CECF8FE7089552
:1049600081E008958091CE0280FF0CC060912D01FE
:1049700070E075956795759567956115710549F1B5
:10498000862F089581FF06C060912D0170E0759516
:104990006795F3CF60912D0182FD0BC09091CD0200
:1049A0009923A1F060912C0180912D01961738F088
:1049B000682F70E06038710500F38FE70895899FD4
:1049C000C001112470E00E94552FF4CF61E070E027
:1049D000D7CF81E00895803F31F40E94682481950B
:1049E0008093D2020895813F19F40E946824F8CF81
:1049F000823F31F40E94682481958093D10208950A
:104A0000833F19F40E946824F8CF893F29F40E945B
:104A1000B2248093D30208958A3F21F40E94B224E5
:104A20008195F7CF8B3F31F40E94B224819580931A
:104A3000D40208958C3F19F40E94B224F8CF843F29
:104A400031F48091D00281608093D0020895853F37
:104A500021F48091D0028260F7CF863F21F48091CB
:104A6000D0028460F1CF873F21F48091D00288602A
:104A7000EBCF883F21F48091D0028061E5CF8D3F5C
:104A800031F48091CE0281608093CE0208958E3FF2
:104A900021F48091CE028260F7CF8F3FB9F78091E9
:104AA000CE028460F1CF9091D102803F41F4809199
:104AB000D20287FD1092D202992371F00895813FAE
:104AC00029F48091D2021816ACF3F6CF823F81F41C
:104AD00097FFF2CF1092D1028091D2029091D3022F
:104AE000892B9091D402892B49F71092CD02089519
:104AF000833F19F4191674F3DFCF893F39F480919D
:104B0000D3021816CCF61092D302D6CF8A3F29F4DE
:104B10008091D30287FFD0CFF6CF8B3F39F48091BD
:104B2000D40287FFC9CF1092D402C6CF8C3F29F49C
:104B30008091D4021816BCF3BFCF843F31F480912A
:104B4000D0028E7F8093D002B7CF853F21F4809131
:104B5000D0028D7FF7CF863F21F48091D0028B7FEA
:104B6000F1CF873F21F48091D002877FEBCF883F40
:104B700021F48091D0028F7EE5CF8D3F31F480917A
:104B8000CE028E7F8093CE0297CF8E3F21F480910C
:104B9000CE028D7FF7CF8F3F09F08ECF8091CE026E
:104BA0008B7FF0CF8091BD0283FF7EC08BE898E0C1
:104BB0000E94A7058091D0021F928F9386E898E00B
:104BC0009F938F930E94400684E898E00E94A70577
:104BD0008091D102282F082E000C330B3F938F9326
:104BE00081E898E09F938F930E9440068FE798E0BA
:104BF0000E94A7058091D202282F082E000C330BAB
:104C00003F938F938CE798E09F938F930E94400689
:104C10008AE798E00E94A7058091D302282F082EEA
:104C2000000C330B3F938F9387E798E09F938F930C
:104C30000E94400685E798E00E94A7058091D40273
:104C4000282F082E000C330B3F938F9382E798E0B8
:104C50009F938F930E9440068FE698E00E94A705DD
:104C60008091CD021F928F938CE698E09F938F9353
:104C70000E9440068AE698E00E94A7058091CE0235
:104C80001F928F9387E698E09F938F930E94400630
:104C900084E698E00E94A7058DB79EB74C960FB6A4
:104CA000F8949EBF0FBE8DBF8FEC92E00E947F15DF
:104CB0000E94DB239093CC028093CB0208950F9344
:104CC0001F93CF93DF9300D000D000D0CDB7DEB7D5
:104CD00086E0EFECF2E09E012F5F3F4FD90101909B
:104CE0000D928A95E1F78091D1029091D202892BA1
:104CF000890181F08091C9029091CA020E94E72344
:104D00009C018091CD02882341F19091310192174D
:104D1000130680F18091D3029091D402892B91F0F7
:104D20008091C7029091C8020E94E7239C01809164
:104D3000CD02882309F479C090912E0192171306B1
:104D400008F481C026960FB6F894DEBF0FBECDBF23
:104D5000DF91CF911F910F9108954091C6029AE083
:104D6000499FA001112442175307A0F68F5F80933B
:104D7000CD0202C08F3FD1F71092D3021092D4021D
:104D80008091D102181624F40E9468248093D102E5
:104D90008091D10287FF05C00E946824819580938D
:104DA000D1028091D202181624F40E9468248093C4
:104DB000D2028091D20287FF05C00E9468248195AB
:104DC0008093D2023091D1023323A1F02091D202FC
:104DD000222381F045EB3403C00111249923E9F02B
:104DE0009093D10245EB2403900111243323C9F0A1
:104DF0003093D2020E94D2258091CB029091CC02B6
:104E00009093CA028093C90286E0F801AFECB2E049
:104E100001900D928A95E1F77DCF81E08093D102D8
:104E2000E1CF81E08093D202E5CF4091C5029AE0C4
:104E3000499FA00111244217530708F083CF8F5FC9
:104E40008093CD0202C08F3FD1F71092D102109211
:104E5000D2028091D302181624F40E94B2248093C7
:104E6000D3028091D30287FF05C00E94B2248195AE
:104E70008093D3028091D402181624F40E94B224A5
:104E80008093D4028091D40287FF05C00E94B2248F
:104E900081958093D4023091D3023323A1F02091E5
:104EA000D402222381F045EB3403C001112499235D
:104EB000E9F09093D30245EB2403900111243323AE
:104EC000C9F03093D4020E94D2258091CB029091F8
:104ED000CC029093C8028093C70286E0F801AFEC41
:104EE000B2E001900D928A95E1F72CCF81E080939A
:104EF000D302E1CF81E08093D402E5CF86E0EFECEE
:104F0000F2E0DF011D928A95E9F71092CD0210922E
:104F1000CE0208958091F8020895CF93DF9300D0D8
:104F20000F92CDB7DEB79091FE02943019F58983C8
:104F30006A837B8382E08093E9008FEF9091E800A1
:104F4000815095FD06C095ED9A95F1F7000081110D
:104F5000F5CF8091E80085FF0DC050E040E063E0B0
:104F600070E0CE0101960E94AF2A8091E8008E7712
:104F70008093E8000F900F900F90DF91CF910895EC
:104F8000CF93DF93D82FC92F0E94922A823011F03D
:104F9000843039F46D2F7C2F84E0DF91CF910C9415
:104FA0008D27DF91CF910895BC0183E00C948D276C
:104FB000CF93DF93D82FC92F0E94922A823011F00D
:104FC000843001F582E08093E9008FEF9091E80052
:104FD000815095FD06C095ED9A95F1F7000081117D
:104FE000F5CF8091E80085FF0DC050E040E066E01D
:104FF00070E08D2F9C2F0E94AF2A8091E8008E7761
:105000008093E800DF91CF910895CF93DF93D82F5D
:10501000C92F0E94922A823011F08430C9F5809104
:105020003C018823C1F18091C30287FF34C060E254
:1050300082E08093E9008FEF9091E800815095FD28
:1050400006C095ED9A95F1F700008111F5CF80919A
:10505000E80085FF1DC080913C0170E050E040E019
:10506000811104C050E040E068E070E08D2F9C2F7B
:105070000E94AF2A8091E8008E778093E80080E25A
:10508000ED2FFC2FA8EDB2E001900D928A95E1F78B
:10509000DF91CF91089568E081E0CBCF9FB7F8947E
:1050A0001092D7029FBF9091FE02943009F048C041
:1050B0002091E9002F703091EC00932F917030FD1A
:1050C00090E8922B23E02093E9002091EB0020FF51
:1050D00034C02091EE0027FF30C02091D50222235A
:1050E00021F02091E80025FF28C01092D50226E08B
:1050F0003091E80035FF14C08093F1008091E80002
:1051000085FD27C08091E80080FFFCCF8091E800FA
:105110008E778093E8009F709093E90080E0089577
:105120003091FE02343049F43091EB0035FD05C07A
:10513000215041F481E08093D5029F709093E90063
:105140008FEF0895EFE9FFE03197F1F700C000001D
:10515000CFCF8FB7F89421E02093D7028FBFDBCF5A
:1051600083ED98E00E94A70580910703811109C093
:105170000E94372C0E94942C8091E20084608093DE
:10518000E20008958FEC98E00E94A70510920703B3
:1051900008958BEC98E00C94A70587EC98E00C94AC
:1051A000A70583EC98E00E94A7050C94A323209107
:1051B000D6022F5F822F62E30E94352F992319F0C8
:1051C0002093D60208951092D6028091D7028823A8
:1051D000F1F08091FE028430C1F49091E9009F705B
:1051E0002091EC00822F817020FD80E8892B93E0D4
:1051F0009093E9009091EB0090FF04C09091EE0035
:1052000097FD08C08F708093E9001092D70208952F
:105210001092F1009091E80095FDFACF9091E8008E
:1052200090FFF0CF9091E8009E779093E800EACF4E
:1052300042E061EC81E00E94B32B42E261EC82E04B
:105240000E94B32B42E261EC83E00C94B32B80917B
:105250000003893089F148F4823009F49DC083301D
:1052600009F458C0813041F008958A3009F484C0AF
:105270008B3009F46AC008958091FF02813A09F0E9
:1052800048C08091E800877F8093E8008091030305
:1052900090910403892B61F460E288ED92E070E064
:1052A0000E94FE2A8091E8008B778093E8000895A1
:1052B00060E090E080E0F3CF8091FF02813249F519
:1052C0008091030390910403029718F58091E80000
:1052D000877F8093E8008091E80082FF16C090915C
:1052E000F3008091F200029729F48091F1008B7F06
:1052F000813021F48091F1008093F8028091E800E0
:105300008B778093E8000C94E72B8091FE0281114B
:10531000E2CF08958091FF02813AD9F7809103038B
:1053200090910403892BA9F78091E800877F8093EF
:10533000E8008091E80080FFFCCF80913C018093E1
:10534000F1008091E8008E77DCCF8091FF028132FE
:1053500001F78091030390910403892BD1F680918A
:10536000E800877F8093E8000E94E72B809101038B
:1053700080933C010C94801A8091FF02813249F69F
:105380008091E800877F8093E8000E94E72B80915E
:1053900002038093F90208958091FF02813A09F097
:1053A000B8CF8091E800877F8093E8008091E80083
:1053B00080FFFCCF8091F902C2CF84B7877F84BF82
:1053C0000FB6F894A8958091600088618093600082
:1053D000109260000FBE80E890E00FB6F8948093C2
:1053E0006100909361000FBE0E94C8150E94372C87
:1053F0000E94942C8091E20084608093E2008EE40D
:1054000098E20E94742178940E941A2F0E94D0156D
:1054100082E391E00E94171582EB98E00E94A705B5
:105420008091FE02853019F00E940216F9CF8EEAB3
:1054300098E00E94A7050E945B238091FB028823CD
:1054400079F30E948C23882359F30E94992AE8CF8C
:105450000C942A2AFC01CB01DA012F2F33272330A9
:105460003105D1F070F42130310509F44EC02230FD
:10547000310569F48BE590E029E139E02D933C9307
:1054800008952132310521F12232310571F190E088
:1054900080E030E020E0F2CFCF019927E230A9F0A0
:1054A0008330910550F4009769F0E5E0F9E0019749
:1054B00071F7849190E09F01E1CFE7EDF8E0039769
:1054C000C1F3E5CFE5E1F9E0F4CFEDEDF8E0F1CFA0
:1054D00063307105E0F6880F991FFC01EB54FE4F15
:1054E0002081318189E090E0C9CF6330710578F681
:1054F000FB01EE0FFF1FE155FE4F208131818455E6
:105500009E4FFC01808190E0B9CF82E190E024E7DA
:1055100039E0B4CF8091FE02843011F482E0089526
:1055200081E008958091FA02811102C00C948A2AC8
:10553000089580E189BD82E189BD09B400FEFDCFF7
:105540008091D8008F7D8093D8008091E0008260A8
:105550008093E0008091E00081FDFCCF0895AF9240
:10556000BF92CF92DF92FF920F931F93CF93DF935F
:105570006C01EB018A010E94062CF82E811123C0D8
:105580000115110539F0F80180819181C81BD90BF3
:10559000C80ED91EB12CA12C2097A9F08091E8004B
:1055A00085FD22C08091E8008E778093E800011588
:1055B0001105A1F0F80180819181A80EB91EB18278
:1055C000A08285E0F82E8F2DDF91CF911F910F9152
:1055D000FF90DF90CF90BF90AF9008950E94062C6F
:1055E0008823D1F2F82EEFCFF60181916F018093DD
:1055F000F1002197FFEFAF1ABF0ACECFFC01CB011C
:1056000020910503309106032617370790F0009785
:1056100029F42091E8002E772093E80040E00097DD
:1056200051F4411108C08091E80082FF31C080E050
:105630000895C901F3CF2091FE022223A9F125305C
:10564000A9F12091E80023FD2DC02091E80022FD62
:10565000EACF2091E80020FFE2CF3091F3002091C3
:10566000F200009719F02830310558F041E0283059
:10567000310509F040E02091E8002E772093E80002
:10568000CECF41914093F10001972F5F3F4FE9CF7B
:105690008091FE02882341F0853041F08091E8003E
:1056A00083FFC1CF81E0089582E0089583E00895EB
:1056B000FC01CB0120910503309106032617370723
:1056C00090F0009729F42091E8002E772093E800CD
:1056D00040E0009751F4411108C08091E80082FF3A
:1056E00032C080E00895C901F3CF2091FE02222349
:1056F000B1F12530B1F12091E80023FD2EC02091B9
:10570000E80022FDEACF2091E80020FFE2CF3091AF
:10571000F3002091F200009719F02830310558F07D
:1057200041E02830310509F040E02091E8002E7773
:105730002093E800CECF44914093F1003196019739
:105740002F5F3F4FE8CF8091FE02882341F08530E4
:1057500041F08091E80083FFC0CF81E0089582E0AE
:10576000089583E00895982F973028F08F708093E4
:10577000E90081E008959093E900242F762F50E00E
:10578000981731F07091EC002091ED005091F000ED
:1057900021FD02C09F5FE8CF3091EB003E7F309348
:1057A000EB003091ED003D7F3093ED003091EB0048
:1057B00031603093EB007093EC002093ED00509338
:1057C000F0002091EE0027FDE5CF80E00895809164
:1057D000FF0287FF13C08091E80082FF06C080911E
:1057E000E8008B778093E80004C08091FE0281116D
:1057F000F2CF08958091FE028823D9F38091E800CA
:1058000080FFF8CF8091E8008E77ECCF2091E40004
:105810003091E50095E6A9012091EC00822F81707E
:1058200020FF06C08091E80080FF06C080E0089558
:105830002091E80022FD1AC08091FE02882389F0A1
:10584000853089F08091EB0085FD0FC02091E40048
:105850003091E50042175307F9F29150E1F684E0E8
:10586000089582E0089583E0089581E008950E94FC
:10587000A52C0E94AD2CE0EEF0E080818160808359
:10588000E8EDF0E080818F77808319BCA7EDB0E070
:105890008C918E7F8C9380818F7E80831092070302
:1058A00008950F931F93CF93DF930E94A52C0E941E
:1058B000AD2CC8EDD0E088818F778883888180689F
:1058C000888388818F7D888319BC1092FE02109294
:1058D000FD021092FB021092FC0200EE10E0F801B3
:1058E00080818B7F808388818160888342E060E053
:1058F00080E00E94B32BE1EEF0E080818E7F808318
:10590000E2EEF0E080818160808380818860808326
:10591000F80180818E7F8083888180618883DF9118
:10592000CF911F910F910895E8EDF0E080818F7E77
:105930008083E7EDF0E080818160808384E082BF36
:1059400081E0809307030C94512CE8EDF0E0808116
:105950008E7F80831092E20008951092DA001092F8
:10596000E10008951F920F920FB60F9211242F930A
:105970003F934F935F936F937F938F939F93AF93D7
:10598000BF93EF93FF938091E10082FF0BC0809162
:10599000E20082FF07C08091E1008B7F8093E100ED
:1059A0000E94D7288091DA0080FF19C08091D8002A
:1059B00080FF15C08091DA008E7F8093DA0080919D
:1059C000D90080FF94C080E189BD82E189BD09B41E
:1059D00000FEFDCF81E08093FE020E94B0288091FE
:1059E000E10080FF19C08091E20080FF15C0809126
:1059F000E2008E7F8093E2008091E20080618093DC
:105A0000E2008091D80080628093D80019BC85E0C4
:105A10008093FE020E94CD288091E10084FF29C07E
:105A20008091E20084FF25C080E189BD82E189BDCB
:105A300009B400FEFDCF8091D8008F7D8093D800FF
:105A40008091E1008F7E8093E1008091E2008F7E63
:105A50008093E2008091E20081608093E200809177
:105A6000FD02882309F449C084E08093FE020E946D
:105A7000D1288091E10083FF29C08091E20083FF5B
:105A800025C08091E100877F8093E10082E08093D0
:105A9000FE021092FD028091E1008E7F8093E10072
:105AA0008091E2008E7F8093E2008091E20080612D
:105AB0008093E20042E060E080E00E94B32B80919E
:105AC000F00088608093F0000E94C928FF91EF9158
:105AD000BF91AF919F918F917F916F915F914F9106
